{
  "contractName": "CompanyFunds",
  "abi": [
    {
      "inputs": [],
      "stateMutability": "nonpayable",
      "type": "constructor"
    },
    {
      "anonymous": false,
      "inputs": [
        {
          "indexed": false,
          "internalType": "address",
          "name": "admin",
          "type": "address"
        }
      ],
      "name": "CompanyAdminAdded",
      "type": "event"
    },
    {
      "anonymous": false,
      "inputs": [
        {
          "indexed": false,
          "internalType": "string",
          "name": "departmentName",
          "type": "string"
        },
        {
          "indexed": false,
          "internalType": "address",
          "name": "admin",
          "type": "address"
        }
      ],
      "name": "DepartmentCreated",
      "type": "event"
    },
    {
      "anonymous": false,
      "inputs": [
        {
          "indexed": false,
          "internalType": "string",
          "name": "departmentName",
          "type": "string"
        },
        {
          "indexed": false,
          "internalType": "uint256",
          "name": "amount",
          "type": "uint256"
        }
      ],
      "name": "FundsApproved",
      "type": "event"
    },
    {
      "anonymous": false,
      "inputs": [
        {
          "indexed": false,
          "internalType": "string",
          "name": "departmentName",
          "type": "string"
        },
        {
          "indexed": false,
          "internalType": "uint256",
          "name": "amount",
          "type": "uint256"
        }
      ],
      "name": "FundsRequested",
      "type": "event"
    },
    {
      "anonymous": false,
      "inputs": [
        {
          "indexed": false,
          "internalType": "string",
          "name": "departmentName",
          "type": "string"
        },
        {
          "indexed": false,
          "internalType": "address",
          "name": "recipient",
          "type": "address"
        },
        {
          "indexed": false,
          "internalType": "uint256",
          "name": "amount",
          "type": "uint256"
        }
      ],
      "name": "FundsWithdrawn",
      "type": "event"
    },
    {
      "stateMutability": "payable",
      "type": "fallback",
      "payable": true
    },
    {
      "inputs": [
        {
          "internalType": "uint256",
          "name": "",
          "type": "uint256"
        }
      ],
      "name": "allDepartments",
      "outputs": [
        {
          "internalType": "string",
          "name": "",
          "type": "string"
        }
      ],
      "stateMutability": "view",
      "type": "function",
      "constant": true
    },
    {
      "inputs": [],
      "name": "companyAccount",
      "outputs": [
        {
          "internalType": "address",
          "name": "",
          "type": "address"
        }
      ],
      "stateMutability": "view",
      "type": "function",
      "constant": true
    },
    {
      "inputs": [
        {
          "internalType": "uint256",
          "name": "",
          "type": "uint256"
        }
      ],
      "name": "companyAdmins",
      "outputs": [
        {
          "internalType": "address",
          "name": "",
          "type": "address"
        }
      ],
      "stateMutability": "view",
      "type": "function",
      "constant": true
    },
    {
      "inputs": [
        {
          "internalType": "string",
          "name": "",
          "type": "string"
        }
      ],
      "name": "departments",
      "outputs": [
        {
          "internalType": "uint256",
          "name": "balance",
          "type": "uint256"
        },
        {
          "internalType": "string",
          "name": "departmentName",
          "type": "string"
        }
      ],
      "stateMutability": "view",
      "type": "function",
      "constant": true
    },
    {
      "stateMutability": "payable",
      "type": "receive",
      "payable": true
    },
    {
      "inputs": [
        {
          "internalType": "address",
          "name": "_admin",
          "type": "address"
        }
      ],
      "name": "isCompanyAdmin",
      "outputs": [
        {
          "internalType": "bool",
          "name": "",
          "type": "bool"
        }
      ],
      "stateMutability": "view",
      "type": "function",
      "constant": true
    },
    {
      "inputs": [
        {
          "internalType": "string",
          "name": "departmentName",
          "type": "string"
        },
        {
          "internalType": "address",
          "name": "_admin",
          "type": "address"
        }
      ],
      "name": "isDepartmentAdmin",
      "outputs": [
        {
          "internalType": "bool",
          "name": "",
          "type": "bool"
        }
      ],
      "stateMutability": "view",
      "type": "function",
      "constant": true
    },
    {
      "inputs": [
        {
          "internalType": "address",
          "name": "_admin",
          "type": "address"
        }
      ],
      "name": "setCompanyAdmin",
      "outputs": [],
      "stateMutability": "nonpayable",
      "type": "function"
    },
    {
      "inputs": [
        {
          "internalType": "string",
          "name": "_departmentName",
          "type": "string"
        },
        {
          "internalType": "address",
          "name": "_admin",
          "type": "address"
        }
      ],
      "name": "createDepartment",
      "outputs": [],
      "stateMutability": "nonpayable",
      "type": "function"
    },
    {
      "inputs": [
        {
          "internalType": "string",
          "name": "departmentName",
          "type": "string"
        },
        {
          "internalType": "uint256",
          "name": "_amount",
          "type": "uint256"
        }
      ],
      "name": "requestFunds",
      "outputs": [],
      "stateMutability": "nonpayable",
      "type": "function"
    },
    {
      "inputs": [
        {
          "internalType": "string",
          "name": "departmentName",
          "type": "string"
        }
      ],
      "name": "approveFunds",
      "outputs": [],
      "stateMutability": "payable",
      "type": "function",
      "payable": true
    },
    {
      "inputs": [
        {
          "internalType": "string",
          "name": "departmentName",
          "type": "string"
        },
        {
          "internalType": "uint256",
          "name": "_amount",
          "type": "uint256"
        }
      ],
      "name": "withdraw",
      "outputs": [],
      "stateMutability": "nonpayable",
      "type": "function"
    },
    {
      "inputs": [],
      "name": "getCompanyBalance",
      "outputs": [
        {
          "internalType": "uint256",
          "name": "",
          "type": "uint256"
        }
      ],
      "stateMutability": "view",
      "type": "function",
      "constant": true
    },
    {
      "inputs": [
        {
          "internalType": "string",
          "name": "departmentName",
          "type": "string"
        }
      ],
      "name": "getDepartmentBalance",
      "outputs": [
        {
          "internalType": "uint256",
          "name": "",
          "type": "uint256"
        }
      ],
      "stateMutability": "view",
      "type": "function",
      "constant": true
    },
    {
      "inputs": [],
      "name": "getCompanyAdmins",
      "outputs": [
        {
          "internalType": "address[]",
          "name": "",
          "type": "address[]"
        }
      ],
      "stateMutability": "view",
      "type": "function",
      "constant": true
    },
    {
      "inputs": [],
      "name": "getAllDepartments",
      "outputs": [
        {
          "internalType": "string[]",
          "name": "",
          "type": "string[]"
        }
      ],
      "stateMutability": "view",
      "type": "function",
      "constant": true
    },
    {
      "inputs": [
        {
          "internalType": "string",
          "name": "departmentName",
          "type": "string"
        }
      ],
      "name": "getDepartmentData",
      "outputs": [
        {
          "internalType": "address[]",
          "name": "",
          "type": "address[]"
        },
        {
          "internalType": "uint256",
          "name": "",
          "type": "uint256"
        },
        {
          "internalType": "string",
          "name": "",
          "type": "string"
        },
        {
          "internalType": "uint256[]",
          "name": "",
          "type": "uint256[]"
        }
      ],
      "stateMutability": "view",
      "type": "function",
      "constant": true
    },
    {
      "inputs": [
        {
          "internalType": "string",
          "name": "departmentName",
          "type": "string"
        },
        {
          "internalType": "uint256",
          "name": "_amount",
          "type": "uint256"
        }
      ],
      "name": "requestStatus",
      "outputs": [
        {
          "internalType": "bool",
          "name": "",
          "type": "bool"
        }
      ],
      "stateMutability": "view",
      "type": "function",
      "constant": true
    }
  ],
  "bytecode": "0x608060405234801561000f575f80fd5b50335f806101000a81548173ffffffffffffffffffffffffffffffffffffffff021916908373ffffffffffffffffffffffffffffffffffffffff160217905550600133908060018154018082558091505060019003905f5260205f20015f9091909190916101000a81548173ffffffffffffffffffffffffffffffffffffffff021916908373ffffffffffffffffffffffffffffffffffffffff1602179055505f60045f6101000a81548160ff0219169083151502179055506122d2806100d55f395ff3fe608060405260043610610101575f3560e01c80636ebe65bd1161009457806399e48f9a1161006357806399e48f9a146103a7578063b636de30146103e3578063c11f2a271461041f578063ecb10ba71461045b578063fa3e4936146104835761013f565b80636ebe65bd146102db5780637816ea661461030557806385c955e61461034157806386c3a49c1461037d5761013f565b80635878d830116100d05780635878d8301461022e5780635fe1197214610256578063642a833f14610295578063670908ae146102bf5761013f565b80631d267f801461017857806330b39a62146101a057806344ba0fe8146101c85780634dce0075146101f25761013f565b3661013f577fc05ffc50baca4421e0d7e47e2dfeecdd0fc5a2c8095030f2cac71d5b39081f3f3460405161013591906112fb565b60405180910390a1005b7fc05ffc50baca4421e0d7e47e2dfeecdd0fc5a2c8095030f2cac71d5b39081f3f3460405161016e91906112fb565b60405180910390a1005b348015610183575f80fd5b5061019e60048036038101906101999190611392565b6104c0565b005b3480156101ab575f80fd5b506101c660048036038101906101c19190611523565b6105e7565b005b3480156101d3575f80fd5b506101dc6107fc565b6040516101e9919061157d565b60405180910390f35b3480156101fd575f80fd5b5061021860048036038101906102139190611596565b610803565b60405161022591906115d0565b60405180910390f35b348015610239575f80fd5b50610254600480360381019061024f9190611523565b61083e565b005b348015610261575f80fd5b5061027c600480360381019061027791906115e9565b610932565b60405161028c9493929190611808565b60405180910390f35b3480156102a0575f80fd5b506102a9610ad8565b6040516102b691906115d0565b60405180910390f35b6102d960048036038101906102d491906115e9565b610afb565b005b3480156102e6575f80fd5b506102ef610c27565b6040516102fc9190611860565b60405180910390f35b348015610310575f80fd5b5061032b60048036038101906103269190611392565b610cb2565b604051610338919061189a565b60405180910390f35b34801561034c575f80fd5b50610367600480360381019061036291906115e9565b610d5a565b604051610374919061157d565b60405180910390f35b348015610388575f80fd5b50610391610d84565b60405161039e91906119b6565b60405180910390f35b3480156103b2575f80fd5b506103cd60048036038101906103c89190611596565b610e58565b6040516103da91906119d6565b60405180910390f35b3480156103ee575f80fd5b50610409600480360381019061040491906119f6565b610efe565b604051610416919061189a565b60405180910390f35b34801561042a575f80fd5b5061044560048036038101906104409190611523565b610fc9565b604051610452919061189a565b60405180910390f35b348015610466575f80fd5b50610481600480360381019061047c91906119f6565b61100f565b005b34801561048e575f80fd5b506104a960048036038101906104a491906115e9565b6111ca565b6040516104b7929190611a50565b60405180910390f35b5f8054906101000a900473ffffffffffffffffffffffffffffffffffffffff1673ffffffffffffffffffffffffffffffffffffffff163373ffffffffffffffffffffffffffffffffffffffff161461054d576040517f08c379a000000000000000000000000000000000000000000000000000000000815260040161054490611aee565b60405180910390fd5b600181908060018154018082558091505060019003905f5260205f20015f9091909190916101000a81548173ffffffffffffffffffffffffffffffffffffffff021916908373ffffffffffffffffffffffffffffffffffffffff1602179055507fbc95b8d7c649ce69acb48ceaa98b2099a2ee6ae95713d2a2da0e4cb8a20c4956816040516105dc91906115d0565b60405180910390a150565b816105f28133610efe565b610631576040517f08c379a000000000000000000000000000000000000000000000000000000000815260040161062890611b56565b60405180910390fd5b60045f9054906101000a900460ff1615610680576040517f08c379a000000000000000000000000000000000000000000000000000000000815260040161067790611bbe565b60405180910390fd5b600160045f6101000a81548160ff0219169083151502179055505f82116106dc576040517f08c379a00000000000000000000000000000000000000000000000000000000081526004016106d390611c26565b60405180910390fd5b5f6002846040516106ed9190611c7e565b908152602001604051809103902090508281600101541015610744576040517f08c379a000000000000000000000000000000000000000000000000000000000815260040161073b90611cde565b60405180910390fd5b3373ffffffffffffffffffffffffffffffffffffffff166108fc8490811502906040515f60405180830381858888f19350505050158015610787573d5f803e3d5ffd5b5082816001015f82825461079b9190611d29565b925050819055507f04f1cd9c278166a000e1b082998f5bdbdf1b11c193aafbd7d1a90a0c9093a2ec8433856040516107d593929190611d5c565b60405180910390a1505f60045f6101000a81548160ff021916908315150217905550505050565b5f47905090565b60018181548110610812575f80fd5b905f5260205f20015f915054906101000a900473ffffffffffffffffffffffffffffffffffffffff1681565b5f8111610880576040517f08c379a000000000000000000000000000000000000000000000000000000000815260040161087790611c26565b60405180910390fd5b5f6002836040516108919190611c7e565b908152602001604051809103902090508060020182908060018154018082558091505060019003905f5260205f20015f90919091909150556001816004015f8481526020019081526020015f205f6101000a81548160ff0219169083151502179055507f1406c4fa79ada7dba74581b8afef15ad50c3481bc7da1d0c5ca8cb4beffff93a8383604051610925929190611d98565b60405180910390a1505050565b60605f6060805f6002866040516109499190611c7e565b90815260200160405180910390209050805f0181600101548260030183600201838054806020026020016040519081016040528092919081815260200182805480156109e757602002820191905f5260205f20905b815f9054906101000a900473ffffffffffffffffffffffffffffffffffffffff1673ffffffffffffffffffffffffffffffffffffffff168152602001906001019080831161099e575b505050505093508180546109fa90611df3565b80601f0160208091040260200160405190810160405280929190818152602001828054610a2690611df3565b8015610a715780601f10610a4857610100808354040283529160200191610a71565b820191905f5260205f20905b815481529060010190602001808311610a5457829003601f168201915b5050505050915080805480602002602001604051908101604052809291908181526020018280548015610ac157602002820191905f5260205f20905b815481526020019060010190808311610aad575b505050505090509450945094509450509193509193565b5f8054906101000a900473ffffffffffffffffffffffffffffffffffffffff1681565b610b0433610cb2565b610b43576040517f08c379a0000000000000000000000000000000000000000000000000000000008152600401610b3a90611e6d565b60405180910390fd5b5f3411610b85576040517f08c379a0000000000000000000000000000000000000000000000000000000008152600401610b7c90611ed5565b60405180910390fd5b5f600282604051610b969190611c7e565b9081526020016040518091039020905034816001015f828254610bb99190611ef3565b925050819055505f816004015f3481526020019081526020015f205f6101000a81548160ff0219169083151502179055507fc05ffc50baca4421e0d7e47e2dfeecdd0fc5a2c8095030f2cac71d5b39081f3f8234604051610c1b929190611d98565b60405180910390a15050565b60606001805480602002602001604051908101604052809291908181526020018280548015610ca857602002820191905f5260205f20905b815f9054906101000a900473ffffffffffffffffffffffffffffffffffffffff1673ffffffffffffffffffffffffffffffffffffffff1681526020019060010190808311610c5f575b5050505050905090565b5f805f90505b600180549050811015610d50578273ffffffffffffffffffffffffffffffffffffffff1660018281548110610cf057610cef611f26565b5b905f5260205f20015f9054906101000a900473ffffffffffffffffffffffffffffffffffffffff1673ffffffffffffffffffffffffffffffffffffffff1603610d3d576001915050610d55565b8080610d4890611f53565b915050610cb8565b505f90505b919050565b5f600282604051610d6b9190611c7e565b9081526020016040518091039020600101549050919050565b60606003805480602002602001604051908101604052809291908181526020015f905b82821015610e4f578382905f5260205f20018054610dc490611df3565b80601f0160208091040260200160405190810160405280929190818152602001828054610df090611df3565b8015610e3b5780601f10610e1257610100808354040283529160200191610e3b565b820191905f5260205f20905b815481529060010190602001808311610e1e57829003601f168201915b505050505081526020019060010190610da7565b50505050905090565b60038181548110610e67575f80fd5b905f5260205f20015f915090508054610e7f90611df3565b80601f0160208091040260200160405190810160405280929190818152602001828054610eab90611df3565b8015610ef65780601f10610ecd57610100808354040283529160200191610ef6565b820191905f5260205f20905b815481529060010190602001808311610ed957829003601f168201915b505050505081565b5f80600284604051610f109190611c7e565b908152602001604051809103902090505f5b815f0180549050811015610fbd578373ffffffffffffffffffffffffffffffffffffffff16825f018281548110610f5c57610f5b611f26565b5b905f5260205f20015f9054906101000a900473ffffffffffffffffffffffffffffffffffffffff1673ffffffffffffffffffffffffffffffffffffffff1603610faa57600192505050610fc3565b8080610fb590611f53565b915050610f22565b505f9150505b92915050565b5f600283604051610fda9190611c7e565b90815260200160405180910390206004015f8381526020019081526020015f205f9054906101000a900460ff16905092915050565b61101833610cb2565b611057576040517f08c379a000000000000000000000000000000000000000000000000000000000815260040161104e90611e6d565b60405180910390fd5b5f6002836040516110689190611c7e565b9081526020016040518091039020600301805461108490611df3565b9050146110c6576040517f08c379a00000000000000000000000000000000000000000000000000000000081526004016110bd90611fe4565b60405180910390fd5b5f6002836040516110d79190611c7e565b90815260200160405180910390209050805f0182908060018154018082558091505060019003905f5260205f20015f9091909190916101000a81548173ffffffffffffffffffffffffffffffffffffffff021916908373ffffffffffffffffffffffffffffffffffffffff16021790555082816003019081611159919061219f565b50600383908060018154018082558091505060019003905f5260205f20015f90919091909150908161118b919061219f565b507fe477153d4f9e18a7e916a90bfec030e6b8271b605aa3b33cd34f67b4538b459483836040516111bd92919061226e565b60405180910390a1505050565b6002818051602081018201805184825260208301602085012081835280955050505050505f9150905080600101549080600301805461120890611df3565b80601f016020809104026020016040519081016040528092919081815260200182805461123490611df3565b801561127f5780601f106112565761010080835404028352916020019161127f565b820191905f5260205f20905b81548152906001019060200180831161126257829003601f168201915b5050505050905082565b5f82825260208201905092915050565b7f455448205472616e7366657200000000000000000000000000000000000000005f82015250565b5f6112cd600c83611289565b91506112d882611299565b602082019050919050565b5f819050919050565b6112f5816112e3565b82525050565b5f6040820190508181035f830152611312816112c1565b905061132160208301846112ec565b92915050565b5f604051905090565b5f80fd5b5f80fd5b5f73ffffffffffffffffffffffffffffffffffffffff82169050919050565b5f61136182611338565b9050919050565b61137181611357565b811461137b575f80fd5b50565b5f8135905061138c81611368565b92915050565b5f602082840312156113a7576113a6611330565b5b5f6113b48482850161137e565b91505092915050565b5f80fd5b5f80fd5b5f601f19601f8301169050919050565b7f4e487b71000000000000000000000000000000000000000000000000000000005f52604160045260245ffd5b61140b826113c5565b810181811067ffffffffffffffff8211171561142a576114296113d5565b5b80604052505050565b5f61143c611327565b90506114488282611402565b919050565b5f67ffffffffffffffff821115611467576114666113d5565b5b611470826113c5565b9050602081019050919050565b828183375f83830152505050565b5f61149d6114988461144d565b611433565b9050828152602081018484840111156114b9576114b86113c1565b5b6114c484828561147d565b509392505050565b5f82601f8301126114e0576114df6113bd565b5b81356114f084826020860161148b565b91505092915050565b611502816112e3565b811461150c575f80fd5b50565b5f8135905061151d816114f9565b92915050565b5f806040838503121561153957611538611330565b5b5f83013567ffffffffffffffff81111561155657611555611334565b5b611562858286016114cc565b92505060206115738582860161150f565b9150509250929050565b5f6020820190506115905f8301846112ec565b92915050565b5f602082840312156115ab576115aa611330565b5b5f6115b88482850161150f565b91505092915050565b6115ca81611357565b82525050565b5f6020820190506115e35f8301846115c1565b92915050565b5f602082840312156115fe576115fd611330565b5b5f82013567ffffffffffffffff81111561161b5761161a611334565b5b611627848285016114cc565b91505092915050565b5f81519050919050565b5f82825260208201905092915050565b5f819050602082019050919050565b61166281611357565b82525050565b5f6116738383611659565b60208301905092915050565b5f602082019050919050565b5f61169582611630565b61169f818561163a565b93506116aa8361164a565b805f5b838110156116da5781516116c18882611668565b97506116cc8361167f565b9250506001810190506116ad565b5085935050505092915050565b5f81519050919050565b5f5b8381101561170e5780820151818401526020810190506116f3565b5f8484015250505050565b5f611723826116e7565b61172d8185611289565b935061173d8185602086016116f1565b611746816113c5565b840191505092915050565b5f81519050919050565b5f82825260208201905092915050565b5f819050602082019050919050565b611783816112e3565b82525050565b5f611794838361177a565b60208301905092915050565b5f602082019050919050565b5f6117b682611751565b6117c0818561175b565b93506117cb8361176b565b805f5b838110156117fb5781516117e28882611789565b97506117ed836117a0565b9250506001810190506117ce565b5085935050505092915050565b5f6080820190508181035f830152611820818761168b565b905061182f60208301866112ec565b81810360408301526118418185611719565b9050818103606083015261185581846117ac565b905095945050505050565b5f6020820190508181035f830152611878818461168b565b905092915050565b5f8115159050919050565b61189481611880565b82525050565b5f6020820190506118ad5f83018461188b565b92915050565b5f81519050919050565b5f82825260208201905092915050565b5f819050602082019050919050565b5f82825260208201905092915050565b5f6118f6826116e7565b61190081856118dc565b93506119108185602086016116f1565b611919816113c5565b840191505092915050565b5f61192f83836118ec565b905092915050565b5f602082019050919050565b5f61194d826118b3565b61195781856118bd565b935083602082028501611969856118cd565b805f5b858110156119a457848403895281516119858582611924565b945061199083611937565b925060208a0199505060018101905061196c565b50829750879550505050505092915050565b5f6020820190508181035f8301526119ce8184611943565b905092915050565b5f6020820190508181035f8301526119ee8184611719565b905092915050565b5f8060408385031215611a0c57611a0b611330565b5b5f83013567ffffffffffffffff811115611a2957611a28611334565b5b611a35858286016114cc565b9250506020611a468582860161137e565b9150509250929050565b5f604082019050611a635f8301856112ec565b8181036020830152611a758184611719565b90509392505050565b7f4f6e6c7920636f6d70616e79206163636f756e742063616e207365742061646d5f8201527f696e730000000000000000000000000000000000000000000000000000000000602082015250565b5f611ad8602383611289565b9150611ae382611a7e565b604082019050919050565b5f6020820190508181035f830152611b0581611acc565b9050919050565b7f4f6e6c79206465706172746d656e742061646d696e20697320616c6c6f7765645f82015250565b5f611b40602083611289565b9150611b4b82611b0c565b602082019050919050565b5f6020820190508181035f830152611b6d81611b34565b9050919050565b7f5265656e7472616e6379206465746563746564000000000000000000000000005f82015250565b5f611ba8601383611289565b9150611bb382611b74565b602082019050919050565b5f6020820190508181035f830152611bd581611b9c565b9050919050565b7f416d6f756e74206d7573742062652067726561746572207468616e20300000005f82015250565b5f611c10601d83611289565b9150611c1b82611bdc565b602082019050919050565b5f6020820190508181035f830152611c3d81611c04565b9050919050565b5f81905092915050565b5f611c58826116e7565b611c628185611c44565b9350611c728185602086016116f1565b80840191505092915050565b5f611c898284611c4e565b915081905092915050565b7f496e73756666696369656e742062616c616e63650000000000000000000000005f82015250565b5f611cc8601483611289565b9150611cd382611c94565b602082019050919050565b5f6020820190508181035f830152611cf581611cbc565b9050919050565b7f4e487b71000000000000000000000000000000000000000000000000000000005f52601160045260245ffd5b5f611d33826112e3565b9150611d3e836112e3565b9250828203905081811115611d5657611d55611cfc565b5b92915050565b5f6060820190508181035f830152611d748186611719565b9050611d8360208301856115c1565b611d9060408301846112ec565b949350505050565b5f6040820190508181035f830152611db08185611719565b9050611dbf60208301846112ec565b9392505050565b7f4e487b71000000000000000000000000000000000000000000000000000000005f52602260045260245ffd5b5f6002820490506001821680611e0a57607f821691505b602082108103611e1d57611e1c611dc6565b5b50919050565b7f4f6e6c7920636f6d70616e792061646d696e20697320616c6c6f7765640000005f82015250565b5f611e57601d83611289565b9150611e6282611e23565b602082019050919050565b5f6020820190508181035f830152611e8481611e4b565b9050919050565b7f4d7573742073656e642066756e647300000000000000000000000000000000005f82015250565b5f611ebf600f83611289565b9150611eca82611e8b565b602082019050919050565b5f6020820190508181035f830152611eec81611eb3565b9050919050565b5f611efd826112e3565b9150611f08836112e3565b9250828201905080821115611f2057611f1f611cfc565b5b92915050565b7f4e487b71000000000000000000000000000000000000000000000000000000005f52603260045260245ffd5b5f611f5d826112e3565b91507fffffffffffffffffffffffffffffffffffffffffffffffffffffffffffffffff8203611f8f57611f8e611cfc565b5b600182019050919050565b7f4465706172746d656e7420616c726561647920657869737473000000000000005f82015250565b5f611fce601983611289565b9150611fd982611f9a565b602082019050919050565b5f6020820190508181035f830152611ffb81611fc2565b9050919050565b5f819050815f5260205f209050919050565b5f6020601f8301049050919050565b5f82821b905092915050565b5f6008830261205e7fffffffffffffffffffffffffffffffffffffffffffffffffffffffffffffffff82612023565b6120688683612023565b95508019841693508086168417925050509392505050565b5f819050919050565b5f6120a361209e612099846112e3565b612080565b6112e3565b9050919050565b5f819050919050565b6120bc83612089565b6120d06120c8826120aa565b84845461202f565b825550505050565b5f90565b6120e46120d8565b6120ef8184846120b3565b505050565b5b81811015612112576121075f826120dc565b6001810190506120f5565b5050565b601f8211156121575761212881612002565b61213184612014565b81016020851015612140578190505b61215461214c85612014565b8301826120f4565b50505b505050565b5f82821c905092915050565b5f6121775f198460080261215c565b1980831691505092915050565b5f61218f8383612168565b9150826002028217905092915050565b6121a8826116e7565b67ffffffffffffffff8111156121c1576121c06113d5565b5b6121cb8254611df3565b6121d6828285612116565b5f60209050601f831160018114612207575f84156121f5578287015190505b6121ff8582612184565b865550612266565b601f19841661221586612002565b5f5b8281101561223c57848901518255600182019150602085019450602081019050612217565b868310156122595784890151612255601f891682612168565b8355505b6001600288020188555050505b505050505050565b5f6040820190508181035f8301526122868185611719565b905061229560208301846115c1565b939250505056fea264697066735822122050eeb069ff61a3c538f3d58d828724ee8c14887ebcbbae479b99bd991384ca8264736f6c63430008150033",
  "immutableReferences": {},
  "source": "// SPDX-License-Identifier: MIT\r\npragma solidity ^0.8.21;\r\n\r\ncontract CompanyFunds {\r\n    struct Department {\r\n        address[] admins;\r\n        uint256 balance;\r\n        uint256[] requestsLists;\r\n        string departmentName;\r\n        mapping(uint256 => bool) requests;\r\n    }\r\n\r\n    address public companyAccount;\r\n    address[] public companyAdmins;\r\n    mapping(string => Department) public departments;  // Use department names as keys\r\n    string[] public allDepartments;\r\n\r\n    // Reentrancy guard\r\n    bool private locked;\r\n\r\n    constructor() {\r\n        companyAccount = msg.sender;\r\n        companyAdmins.push(msg.sender);\r\n        locked = false;  // Initialize the reentrancy lock\r\n    }\r\n\r\n    modifier onlyCompanyAdmin() {\r\n        require(isCompanyAdmin(msg.sender), \"Only company admin is allowed\");\r\n        _;\r\n    }\r\n\r\n    modifier onlyDepartmentAdmin(string memory departmentName) {\r\n        require(\r\n            isDepartmentAdmin(departmentName, msg.sender),\r\n            \"Only department admin is allowed\"\r\n        );\r\n        _;\r\n    }\r\n\r\n    modifier noReentrancy() {\r\n        require(!locked, \"Reentrancy detected\");\r\n        locked = true;\r\n        _;\r\n        locked = false;\r\n    }\r\n\r\n    //  Events for better transparency\r\n    event DepartmentCreated(string departmentName, address admin);\r\n    event FundsRequested(string departmentName, uint256 amount);\r\n    event FundsApproved(string departmentName, uint256 amount);\r\n    event FundsWithdrawn(string departmentName, address recipient, uint256 amount);\r\n    event CompanyAdminAdded(address admin);\r\n\r\n    //  Fallback and Receive functions\r\n    receive() external payable {\r\n        emit FundsApproved(\"ETH Transfer\", msg.value);\r\n    }\r\n\r\n    fallback() external payable {\r\n        emit FundsApproved(\"ETH Transfer\", msg.value);\r\n    }\r\n\r\n    function isCompanyAdmin(address _admin) public view returns (bool) {\r\n        for (uint256 i = 0; i < companyAdmins.length; i++) {\r\n            if (companyAdmins[i] == _admin) {\r\n                return true;\r\n            }\r\n        }\r\n        return false;\r\n    }\r\n\r\n    function isDepartmentAdmin(string memory departmentName, address _admin) public view returns (bool) {\r\n        Department storage dept = departments[departmentName];\r\n        for (uint256 i = 0; i < dept.admins.length; i++) {\r\n            if (dept.admins[i] == _admin) {\r\n                return true;\r\n            }\r\n        }\r\n        return false;\r\n    }\r\n\r\n    function setCompanyAdmin(address _admin) external {\r\n        require(\r\n            msg.sender == companyAccount,\r\n            \"Only company account can set admins\"\r\n        );\r\n        companyAdmins.push(_admin);\r\n        emit CompanyAdminAdded(_admin);\r\n    }\r\n\r\n    function createDepartment(\r\n        string memory _departmentName,\r\n        address _admin\r\n    ) external onlyCompanyAdmin {\r\n        require(bytes(departments[_departmentName].departmentName).length == 0, \"Department already exists\");\r\n\r\n        Department storage newDept = departments[_departmentName];\r\n        newDept.admins.push(_admin);\r\n        newDept.departmentName = _departmentName;\r\n\r\n        allDepartments.push(_departmentName);\r\n        \r\n        emit DepartmentCreated(_departmentName, _admin);\r\n    }\r\n\r\n    function requestFunds(string memory departmentName, uint256 _amount) external {\r\n        require(_amount > 0, \"Amount must be greater than 0\");\r\n        \r\n        Department storage dept = departments[departmentName];\r\n        \r\n        dept.requestsLists.push(_amount);\r\n        dept.requests[_amount] = true;\r\n\r\n        emit FundsRequested(departmentName, _amount);\r\n    }\r\n\r\n    function approveFunds(string memory departmentName) external payable onlyCompanyAdmin {\r\n        require(msg.value > 0, \"Must send funds\");\r\n\r\n        Department storage dept = departments[departmentName];\r\n        dept.balance += msg.value;\r\n        dept.requests[msg.value] = false;\r\n\r\n        emit FundsApproved(departmentName, msg.value);\r\n    }\r\n\r\n    function withdraw(string memory departmentName, uint256 _amount) external onlyDepartmentAdmin(departmentName) noReentrancy {\r\n        require(_amount > 0, \"Amount must be greater than 0\");\r\n\r\n        Department storage dept = departments[departmentName];\r\n        require(dept.balance >= _amount, \"Insufficient balance\");\r\n\r\n        //  Transfer first to prevent reentrancy\r\n        payable(msg.sender).transfer(_amount);\r\n        dept.balance -= _amount;\r\n\r\n        emit FundsWithdrawn(departmentName, msg.sender, _amount);\r\n    }\r\n\r\n    function getCompanyBalance() external view returns (uint256) {\r\n        return address(this).balance;\r\n    }\r\n\r\n    function getDepartmentBalance(string memory departmentName) external view returns (uint256) {\r\n        return departments[departmentName].balance;\r\n    }\r\n\r\n    function getCompanyAdmins() external view returns (address[] memory) {\r\n        return companyAdmins;\r\n    }\r\n\r\n    function getAllDepartments() external view returns (string[] memory) {\r\n        return allDepartments;\r\n    }\r\n\r\n    function getDepartmentData(string memory departmentName)\r\n        external\r\n        view\r\n        returns (\r\n            address[] memory,\r\n            uint256,\r\n            string memory,\r\n            uint256[] memory\r\n        )\r\n    {\r\n        Department storage department = departments[departmentName];\r\n        return (\r\n            department.admins,\r\n            department.balance,\r\n            department.departmentName,\r\n            department.requestsLists\r\n        );\r\n    }\r\n\r\n    function requestStatus(string memory departmentName, uint256 _amount) external view returns (bool) {\r\n        return departments[departmentName].requests[_amount];\r\n    }\r\n}\r\n",
  "sourcePath": "C:\\Users\\Ayush\\Desktop\\Blockchain\\Project--Inventory-Management-using-Blockchain\\Project_backend\\contracts\\CompanyFunds.sol",
  "compiler": {
    "name": "solc",
    "version": "0.8.21+commit.d9974bed.Emscripten.clang"
  },
  "schemaVersion": "3.4.16",
  "updatedAt": "2025-03-31T08:48:21.472Z",
  "networkType": "ethereum",
  "devdoc": {
    "kind": "dev",
    "methods": {},
    "version": 1
  },
  "userdoc": {
    "kind": "user",
    "methods": {},
    "version": 1
  }
}