{
  "contractName": "CompanyFunds",
  "abi": [
    {
      "inputs": [],
      "stateMutability": "nonpayable",
      "type": "constructor"
    },
    {
      "inputs": [
        {
          "internalType": "uint256",
          "name": "",
          "type": "uint256"
        }
      ],
      "name": "allDepartments",
      "outputs": [
        {
          "internalType": "address",
          "name": "",
          "type": "address"
        }
      ],
      "stateMutability": "view",
      "type": "function"
    },
    {
      "inputs": [],
      "name": "companyAccount",
      "outputs": [
        {
          "internalType": "address",
          "name": "",
          "type": "address"
        }
      ],
      "stateMutability": "view",
      "type": "function"
    },
    {
      "inputs": [
        {
          "internalType": "uint256",
          "name": "",
          "type": "uint256"
        }
      ],
      "name": "companyAdmins",
      "outputs": [
        {
          "internalType": "address",
          "name": "",
          "type": "address"
        }
      ],
      "stateMutability": "view",
      "type": "function"
    },
    {
      "inputs": [
        {
          "internalType": "address",
          "name": "",
          "type": "address"
        }
      ],
      "name": "departments",
      "outputs": [
        {
          "internalType": "uint256",
          "name": "balance",
          "type": "uint256"
        },
        {
          "internalType": "string",
          "name": "departmentName",
          "type": "string"
        }
      ],
      "stateMutability": "view",
      "type": "function"
    },
    {
      "inputs": [
        {
          "internalType": "address",
          "name": "_admin",
          "type": "address"
        }
      ],
      "name": "isCompanyAdmin",
      "outputs": [
        {
          "internalType": "bool",
          "name": "",
          "type": "bool"
        }
      ],
      "stateMutability": "view",
      "type": "function"
    },
    {
      "inputs": [
        {
          "internalType": "address",
          "name": "_admin",
          "type": "address"
        }
      ],
      "name": "setCompanyAdmin",
      "outputs": [],
      "stateMutability": "nonpayable",
      "type": "function"
    },
    {
      "inputs": [
        {
          "internalType": "address",
          "name": "_department",
          "type": "address"
        },
        {
          "internalType": "address",
          "name": "_admin",
          "type": "address"
        },
        {
          "internalType": "string",
          "name": "_departmentName",
          "type": "string"
        }
      ],
      "name": "setDepartmentAdmin",
      "outputs": [],
      "stateMutability": "nonpayable",
      "type": "function"
    },
    {
      "inputs": [
        {
          "internalType": "address",
          "name": "_address",
          "type": "address"
        },
        {
          "internalType": "uint256",
          "name": "_amount",
          "type": "uint256"
        }
      ],
      "name": "requestFunds",
      "outputs": [],
      "stateMutability": "nonpayable",
      "type": "function"
    },
    {
      "inputs": [
        {
          "internalType": "address",
          "name": "_department",
          "type": "address"
        }
      ],
      "name": "approveFunds",
      "outputs": [],
      "stateMutability": "payable",
      "type": "function"
    },
    {
      "inputs": [
        {
          "internalType": "address",
          "name": "_address",
          "type": "address"
        },
        {
          "internalType": "uint256",
          "name": "_amount",
          "type": "uint256"
        }
      ],
      "name": "withdraw",
      "outputs": [],
      "stateMutability": "nonpayable",
      "type": "function"
    },
    {
      "inputs": [],
      "name": "getCompanyBalance",
      "outputs": [
        {
          "internalType": "uint256",
          "name": "",
          "type": "uint256"
        }
      ],
      "stateMutability": "view",
      "type": "function"
    },
    {
      "inputs": [
        {
          "internalType": "address",
          "name": "_department",
          "type": "address"
        }
      ],
      "name": "getDepartmentBalance",
      "outputs": [
        {
          "internalType": "uint256",
          "name": "",
          "type": "uint256"
        }
      ],
      "stateMutability": "view",
      "type": "function"
    },
    {
      "inputs": [],
      "name": "getCompanyAdmins",
      "outputs": [
        {
          "internalType": "address[]",
          "name": "",
          "type": "address[]"
        }
      ],
      "stateMutability": "view",
      "type": "function"
    },
    {
      "inputs": [],
      "name": "getAllDepartments",
      "outputs": [
        {
          "internalType": "address[]",
          "name": "",
          "type": "address[]"
        }
      ],
      "stateMutability": "view",
      "type": "function"
    },
    {
      "inputs": [
        {
          "internalType": "address",
          "name": "_departmentAddress",
          "type": "address"
        }
      ],
      "name": "getDepartmentData",
      "outputs": [
        {
          "internalType": "address[]",
          "name": "",
          "type": "address[]"
        },
        {
          "internalType": "uint256",
          "name": "",
          "type": "uint256"
        },
        {
          "internalType": "string",
          "name": "",
          "type": "string"
        },
        {
          "internalType": "uint256[]",
          "name": "",
          "type": "uint256[]"
        }
      ],
      "stateMutability": "view",
      "type": "function"
    },
    {
      "inputs": [
        {
          "internalType": "address",
          "name": "_address",
          "type": "address"
        },
        {
          "internalType": "uint256",
          "name": "_amount",
          "type": "uint256"
        }
      ],
      "name": "requestStatus",
      "outputs": [
        {
          "internalType": "bool",
          "name": "",
          "type": "bool"
        }
      ],
      "stateMutability": "view",
      "type": "function"
    }
  ],
  "bytecode": "0x608060405234801561000f575f80fd5b50335f806101000a81548173ffffffffffffffffffffffffffffffffffffffff021916908373ffffffffffffffffffffffffffffffffffffffff160217905550600133908060018154018082558091505060019003905f5260205f20015f9091909190916101000a81548173ffffffffffffffffffffffffffffffffffffffff021916908373ffffffffffffffffffffffffffffffffffffffff160217905550611d28806100bc5f395ff3fe6080604052600436106100f2575f3560e01c80636ebe65bd1161008957806399e48f9a1161005857806399e48f9a14610346578063b53e9b1d14610382578063d525a33f1461039e578063f3fef3a3146103da576100f2565b80636ebe65bd1461027a5780637816ea66146102a457806386c3a49c146102e057806398e4136b1461030a576100f2565b8063514c77a9116100c5578063514c77a9146101ac578063642a833f146101d45780636694dd38146101fe5780636a0adb9a1461023b576100f2565b80631d267f80146100f657806344ba0fe81461011e578063494666b6146101485780634dce007514610170575b5f80fd5b348015610101575f80fd5b5061011c600480360381019061011791906111dc565b610402565b005b348015610129575f80fd5b506101326104f2565b60405161013f919061121f565b60405180910390f35b348015610153575f80fd5b5061016e60048036038101906101699190611262565b6104f9565b005b34801561017b575f80fd5b50610196600480360381019061019191906112a0565b6106d8565b6040516101a391906112da565b60405180910390f35b3480156101b7575f80fd5b506101d260048036038101906101cd919061142f565b610713565b005b3480156101df575f80fd5b506101e86109d0565b6040516101f591906112da565b60405180910390f35b348015610209575f80fd5b50610224600480360381019061021f91906111dc565b6109f3565b604051610232929190611515565b60405180910390f35b348015610246575f80fd5b50610261600480360381019061025c91906111dc565b610a9a565b60405161027194939291906116b1565b60405180910390f35b348015610285575f80fd5b5061028e610c5f565b60405161029b9190611709565b60405180910390f35b3480156102af575f80fd5b506102ca60048036038101906102c591906111dc565b610cea565b6040516102d79190611743565b60405180910390f35b3480156102eb575f80fd5b506102f4610d92565b6040516103019190611709565b60405180910390f35b348015610315575f80fd5b50610330600480360381019061032b9190611262565b610e1d565b60405161033d9190611743565b60405180910390f35b348015610351575f80fd5b5061036c600480360381019061036791906112a0565b610e82565b60405161037991906112da565b60405180910390f35b61039c600480360381019061039791906111dc565b610ebd565b005b3480156103a9575f80fd5b506103c460048036038101906103bf91906111dc565b610fc4565b6040516103d1919061121f565b60405180910390f35b3480156103e5575f80fd5b5061040060048036038101906103fb9190611262565b61100d565b005b5f8054906101000a900473ffffffffffffffffffffffffffffffffffffffff1673ffffffffffffffffffffffffffffffffffffffff163373ffffffffffffffffffffffffffffffffffffffff161461048f576040517f08c379a0000000000000000000000000000000000000000000000000000000008152600401610486906117cc565b60405180910390fd5b600181908060018154018082558091505060019003905f5260205f20015f9091909190916101000a81548173ffffffffffffffffffffffffffffffffffffffff021916908373ffffffffffffffffffffffffffffffffffffffff16021790555050565b5f47905090565b5f811161053b576040517f08c379a000000000000000000000000000000000000000000000000000000000815260040161053290611834565b60405180910390fd5b60025f8373ffffffffffffffffffffffffffffffffffffffff1673ffffffffffffffffffffffffffffffffffffffff1681526020019081526020015f20600201548160025f8573ffffffffffffffffffffffffffffffffffffffff1673ffffffffffffffffffffffffffffffffffffffff1681526020019081526020015f20600201546105c8919061187f565b1015610609576040517f08c379a0000000000000000000000000000000000000000000000000000000008152600401610600906118fc565b60405180910390fd5b600160025f8473ffffffffffffffffffffffffffffffffffffffff1673ffffffffffffffffffffffffffffffffffffffff1681526020019081526020015f206003015f8381526020019081526020015f205f6101000a81548160ff02191690831515021790555060025f8373ffffffffffffffffffffffffffffffffffffffff1673ffffffffffffffffffffffffffffffffffffffff1681526020019081526020015f2060050181908060018154018082558091505060019003905f5260205f20015f90919091909150555050565b600181815481106106e7575f80fd5b905f5260205f20015f915054906101000a900473ffffffffffffffffffffffffffffffffffffffff1681565b61071c33610cea565b61075b576040517f08c379a000000000000000000000000000000000000000000000000000000000815260040161075290611964565b60405180910390fd5b600160025f8573ffffffffffffffffffffffffffffffffffffffff1673ffffffffffffffffffffffffffffffffffffffff1681526020019081526020015f206001015f8473ffffffffffffffffffffffffffffffffffffffff1673ffffffffffffffffffffffffffffffffffffffff1681526020019081526020015f205f6101000a81548160ff02191690831515021790555060025f8473ffffffffffffffffffffffffffffffffffffffff1673ffffffffffffffffffffffffffffffffffffffff1681526020019081526020015f205f0182908060018154018082558091505060019003905f5260205f20015f9091909190916101000a81548173ffffffffffffffffffffffffffffffffffffffff021916908373ffffffffffffffffffffffffffffffffffffffff1602179055508060025f8573ffffffffffffffffffffffffffffffffffffffff1673ffffffffffffffffffffffffffffffffffffffff1681526020019081526020015f2060040190816108d89190611b7c565b50610966600380548060200260200160405190810160405280929190818152602001828054801561095b57602002820191905f5260205f20905b815f9054906101000a900473ffffffffffffffffffffffffffffffffffffffff1673ffffffffffffffffffffffffffffffffffffffff1681526020019060010190808311610912575b5050505050846110ed565b6109cb57600383908060018154018082558091505060019003905f5260205f20015f9091909190916101000a81548173ffffffffffffffffffffffffffffffffffffffff021916908373ffffffffffffffffffffffffffffffffffffffff1602179055505b505050565b5f8054906101000a900473ffffffffffffffffffffffffffffffffffffffff1681565b6002602052805f5260405f205f91509050806002015490806004018054610a19906119af565b80601f0160208091040260200160405190810160405280929190818152602001828054610a45906119af565b8015610a905780601f10610a6757610100808354040283529160200191610a90565b820191905f5260205f20905b815481529060010190602001808311610a7357829003601f168201915b5050505050905082565b60605f6060805f60025f8773ffffffffffffffffffffffffffffffffffffffff1673ffffffffffffffffffffffffffffffffffffffff1681526020019081526020015f209050805f018160020154826004018360050183805480602002602001604051908101604052809291908181526020018280548015610b6e57602002820191905f5260205f20905b815f9054906101000a900473ffffffffffffffffffffffffffffffffffffffff1673ffffffffffffffffffffffffffffffffffffffff1681526020019060010190808311610b25575b50505050509350818054610b81906119af565b80601f0160208091040260200160405190810160405280929190818152602001828054610bad906119af565b8015610bf85780601f10610bcf57610100808354040283529160200191610bf8565b820191905f5260205f20905b815481529060010190602001808311610bdb57829003601f168201915b5050505050915080805480602002602001604051908101604052809291908181526020018280548015610c4857602002820191905f5260205f20905b815481526020019060010190808311610c34575b505050505090509450945094509450509193509193565b60606001805480602002602001604051908101604052809291908181526020018280548015610ce057602002820191905f5260205f20905b815f9054906101000a900473ffffffffffffffffffffffffffffffffffffffff1673ffffffffffffffffffffffffffffffffffffffff1681526020019060010190808311610c97575b5050505050905090565b5f805f90505b600180549050811015610d88578273ffffffffffffffffffffffffffffffffffffffff1660018281548110610d2857610d27611c4b565b5b905f5260205f20015f9054906101000a900473ffffffffffffffffffffffffffffffffffffffff1673ffffffffffffffffffffffffffffffffffffffff1603610d75576001915050610d8d565b8080610d8090611c78565b915050610cf0565b505f90505b919050565b60606003805480602002602001604051908101604052809291908181526020018280548015610e1357602002820191905f5260205f20905b815f9054906101000a900473ffffffffffffffffffffffffffffffffffffffff1673ffffffffffffffffffffffffffffffffffffffff1681526020019060010190808311610dca575b5050505050905090565b5f60025f8473ffffffffffffffffffffffffffffffffffffffff1673ffffffffffffffffffffffffffffffffffffffff1681526020019081526020015f206003015f8381526020019081526020015f205f9054906101000a900460ff16905092915050565b60038181548110610e91575f80fd5b905f5260205f20015f915054906101000a900473ffffffffffffffffffffffffffffffffffffffff1681565b610ec633610cea565b610f05576040517f08c379a0000000000000000000000000000000000000000000000000000000008152600401610efc90611964565b60405180910390fd5b3460025f8373ffffffffffffffffffffffffffffffffffffffff1673ffffffffffffffffffffffffffffffffffffffff1681526020019081526020015f206002015f828254610f54919061187f565b925050819055505f60025f8373ffffffffffffffffffffffffffffffffffffffff1673ffffffffffffffffffffffffffffffffffffffff1681526020019081526020015f206003015f3481526020019081526020015f205f6101000a81548160ff02191690831515021790555050565b5f60025f8373ffffffffffffffffffffffffffffffffffffffff1673ffffffffffffffffffffffffffffffffffffffff1681526020019081526020015f20600201549050919050565b5f811161104f576040517f08c379a000000000000000000000000000000000000000000000000000000000815260040161104690611834565b60405180910390fd5b8060025f8473ffffffffffffffffffffffffffffffffffffffff1673ffffffffffffffffffffffffffffffffffffffff1681526020019081526020015f206002015f82825461109e9190611cbf565b925050819055508173ffffffffffffffffffffffffffffffffffffffff166108fc8290811502906040515f60405180830381858888f193505050501580156110e8573d5f803e3d5ffd5b505050565b5f805f90505b8351811015611166578273ffffffffffffffffffffffffffffffffffffffff1684828151811061112657611125611c4b565b5b602002602001015173ffffffffffffffffffffffffffffffffffffffff160361115357600191505061116b565b808061115e90611c78565b9150506110f3565b505f90505b92915050565b5f604051905090565b5f80fd5b5f80fd5b5f73ffffffffffffffffffffffffffffffffffffffff82169050919050565b5f6111ab82611182565b9050919050565b6111bb816111a1565b81146111c5575f80fd5b50565b5f813590506111d6816111b2565b92915050565b5f602082840312156111f1576111f061117a565b5b5f6111fe848285016111c8565b91505092915050565b5f819050919050565b61121981611207565b82525050565b5f6020820190506112325f830184611210565b92915050565b61124181611207565b811461124b575f80fd5b50565b5f8135905061125c81611238565b92915050565b5f80604083850312156112785761127761117a565b5b5f611285858286016111c8565b92505060206112968582860161124e565b9150509250929050565b5f602082840312156112b5576112b461117a565b5b5f6112c28482850161124e565b91505092915050565b6112d4816111a1565b82525050565b5f6020820190506112ed5f8301846112cb565b92915050565b5f80fd5b5f80fd5b5f601f19601f8301169050919050565b7f4e487b71000000000000000000000000000000000000000000000000000000005f52604160045260245ffd5b611341826112fb565b810181811067ffffffffffffffff821117156113605761135f61130b565b5b80604052505050565b5f611372611171565b905061137e8282611338565b919050565b5f67ffffffffffffffff82111561139d5761139c61130b565b5b6113a6826112fb565b9050602081019050919050565b828183375f83830152505050565b5f6113d36113ce84611383565b611369565b9050828152602081018484840111156113ef576113ee6112f7565b5b6113fa8482856113b3565b509392505050565b5f82601f830112611416576114156112f3565b5b81356114268482602086016113c1565b91505092915050565b5f805f606084860312156114465761144561117a565b5b5f611453868287016111c8565b9350506020611464868287016111c8565b925050604084013567ffffffffffffffff8111156114855761148461117e565b5b61149186828701611402565b9150509250925092565b5f81519050919050565b5f82825260208201905092915050565b5f5b838110156114d25780820151818401526020810190506114b7565b5f8484015250505050565b5f6114e78261149b565b6114f181856114a5565b93506115018185602086016114b5565b61150a816112fb565b840191505092915050565b5f6040820190506115285f830185611210565b818103602083015261153a81846114dd565b90509392505050565b5f81519050919050565b5f82825260208201905092915050565b5f819050602082019050919050565b611575816111a1565b82525050565b5f611586838361156c565b60208301905092915050565b5f602082019050919050565b5f6115a882611543565b6115b2818561154d565b93506115bd8361155d565b805f5b838110156115ed5781516115d4888261157b565b97506115df83611592565b9250506001810190506115c0565b5085935050505092915050565b5f81519050919050565b5f82825260208201905092915050565b5f819050602082019050919050565b61162c81611207565b82525050565b5f61163d8383611623565b60208301905092915050565b5f602082019050919050565b5f61165f826115fa565b6116698185611604565b935061167483611614565b805f5b838110156116a457815161168b8882611632565b975061169683611649565b925050600181019050611677565b5085935050505092915050565b5f6080820190508181035f8301526116c9818761159e565b90506116d86020830186611210565b81810360408301526116ea81856114dd565b905081810360608301526116fe8184611655565b905095945050505050565b5f6020820190508181035f830152611721818461159e565b905092915050565b5f8115159050919050565b61173d81611729565b82525050565b5f6020820190506117565f830184611734565b92915050565b7f4f6e6c7920636f6d70616e79206163636f756e742063616e207365742061646d5f8201527f696e730000000000000000000000000000000000000000000000000000000000602082015250565b5f6117b66023836114a5565b91506117c18261175c565b604082019050919050565b5f6020820190508181035f8301526117e3816117aa565b9050919050565b7f416d6f756e74206d7573742062652067726561746572207468616e20300000005f82015250565b5f61181e601d836114a5565b9150611829826117ea565b602082019050919050565b5f6020820190508181035f83015261184b81611812565b9050919050565b7f4e487b71000000000000000000000000000000000000000000000000000000005f52601160045260245ffd5b5f61188982611207565b915061189483611207565b92508282019050808211156118ac576118ab611852565b5b92915050565b7f496e7465676572206f766572666c6f77000000000000000000000000000000005f82015250565b5f6118e66010836114a5565b91506118f1826118b2565b602082019050919050565b5f6020820190508181035f830152611913816118da565b9050919050565b7f4f6e6c7920636f6d70616e792061646d696e20697320616c6c6f7765640000005f82015250565b5f61194e601d836114a5565b91506119598261191a565b602082019050919050565b5f6020820190508181035f83015261197b81611942565b9050919050565b7f4e487b71000000000000000000000000000000000000000000000000000000005f52602260045260245ffd5b5f60028204905060018216806119c657607f821691505b6020821081036119d9576119d8611982565b5b50919050565b5f819050815f5260205f209050919050565b5f6020601f8301049050919050565b5f82821b905092915050565b5f60088302611a3b7fffffffffffffffffffffffffffffffffffffffffffffffffffffffffffffffff82611a00565b611a458683611a00565b95508019841693508086168417925050509392505050565b5f819050919050565b5f611a80611a7b611a7684611207565b611a5d565b611207565b9050919050565b5f819050919050565b611a9983611a66565b611aad611aa582611a87565b848454611a0c565b825550505050565b5f90565b611ac1611ab5565b611acc818484611a90565b505050565b5b81811015611aef57611ae45f82611ab9565b600181019050611ad2565b5050565b601f821115611b3457611b05816119df565b611b0e846119f1565b81016020851015611b1d578190505b611b31611b29856119f1565b830182611ad1565b50505b505050565b5f82821c905092915050565b5f611b545f1984600802611b39565b1980831691505092915050565b5f611b6c8383611b45565b9150826002028217905092915050565b611b858261149b565b67ffffffffffffffff811115611b9e57611b9d61130b565b5b611ba882546119af565b611bb3828285611af3565b5f60209050601f831160018114611be4575f8415611bd2578287015190505b611bdc8582611b61565b865550611c43565b601f198416611bf2866119df565b5f5b82811015611c1957848901518255600182019150602085019450602081019050611bf4565b86831015611c365784890151611c32601f891682611b45565b8355505b6001600288020188555050505b505050505050565b7f4e487b71000000000000000000000000000000000000000000000000000000005f52603260045260245ffd5b5f611c8282611207565b91507fffffffffffffffffffffffffffffffffffffffffffffffffffffffffffffffff8203611cb457611cb3611852565b5b600182019050919050565b5f611cc982611207565b9150611cd483611207565b9250828203905081811115611cec57611ceb611852565b5b9291505056fea2646970667358221220372782e816cf2f0aacb0f1d89a2864245b7b54139865b91c1aaadd17b31dea0864736f6c63430008150033",
  "immutableReferences": {},
  "source": "// SPDX-License-Identifier: MIT\r\npragma solidity ^0.8.0;\r\n\r\ncontract CompanyFunds {\r\n    struct Department {\r\n        address[] admins;\r\n        mapping(address => bool) isAdmin;\r\n        uint256 balance;\r\n        mapping(uint256 => bool) requests;\r\n        string departmentName;\r\n        uint256[] requestsLists;\r\n    }\r\n\r\n    address public companyAccount;\r\n    address[] public companyAdmins;\r\n    mapping(address => Department) public departments;\r\n    address[] public allDepartments;\r\n\r\n    constructor() {\r\n        companyAccount = msg.sender;\r\n        companyAdmins.push(msg.sender);\r\n    }\r\n\r\n    modifier onlyCompanyAdmin() {\r\n        require(isCompanyAdmin(msg.sender), \"Only company admin is allowed\");\r\n        _;\r\n    }\r\n\r\n    modifier onlyDepartmentAdmin(address department) {\r\n        require(\r\n            departments[department].isAdmin[msg.sender],\r\n            \"Only department admin is allowed\"\r\n        );\r\n        _;\r\n    }\r\n\r\n    function isCompanyAdmin(address _admin) public view returns (bool) {\r\n        for (uint256 i = 0; i < companyAdmins.length; i++) {\r\n            if (companyAdmins[i] == _admin) {\r\n                return true;\r\n            }\r\n        }\r\n        return false;\r\n    }\r\n\r\n    function setCompanyAdmin(address _admin) external {\r\n        require(\r\n            msg.sender == companyAccount,\r\n            \"Only company account can set admins\"\r\n        );\r\n        companyAdmins.push(_admin);\r\n    }\r\n\r\n    function setDepartmentAdmin(\r\n        address _department,\r\n        address _admin,\r\n        string memory _departmentName\r\n    ) external onlyCompanyAdmin {\r\n        departments[_department].isAdmin[_admin] = true;\r\n        departments[_department].admins.push(_admin);\r\n        departments[_department].departmentName = _departmentName;\r\n\r\n        if (!contains(allDepartments, _department)) {\r\n            allDepartments.push(_department);\r\n        }\r\n    }\r\n\r\n    function contains(address[] memory array, address element)\r\n        internal\r\n        pure\r\n        returns (bool)\r\n    {\r\n        for (uint256 i = 0; i < array.length; i++) {\r\n            if (array[i] == element) {\r\n                return true;\r\n            }\r\n        }\r\n        return false;\r\n    }\r\n\r\n    function requestFunds(address _address, uint256 _amount) external {\r\n        require(_amount > 0, \"Amount must be greater than 0\");\r\n        require(\r\n            departments[_address].balance + _amount >=\r\n                departments[_address].balance,\r\n            \"Integer overflow\"\r\n        );\r\n        departments[_address].requests[_amount] = true;\r\n        departments[_address].requestsLists.push(_amount);\r\n    }\r\n\r\n    function approveFunds(address _department)\r\n        external\r\n        payable\r\n        onlyCompanyAdmin\r\n    {\r\n        departments[_department].balance += msg.value;\r\n        departments[_department].requests[msg.value] = false;\r\n    }\r\n\r\n    function withdraw(address _address, uint256 _amount) external {\r\n        require(_amount > 0, \"Amount must be greater than 0\");\r\n        departments[_address].balance -= _amount;\r\n        payable(_address).transfer(_amount);\r\n    }\r\n\r\n    function getCompanyBalance() external view returns (uint256) {\r\n        return address(this).balance;\r\n    }\r\n\r\n    function getDepartmentBalance(address _department)\r\n        external\r\n        view\r\n        returns (uint256)\r\n    {\r\n        return departments[_department].balance;\r\n    }\r\n\r\n    function getCompanyAdmins() external view returns (address[] memory) {\r\n        return companyAdmins;\r\n    }\r\n\r\n    function getAllDepartments() external view returns (address[] memory) {\r\n        return allDepartments;\r\n    }\r\n\r\n    function getDepartmentData(address _departmentAddress)\r\n        external\r\n        view\r\n        returns (\r\n            address[] memory,\r\n            uint256,\r\n            string memory,\r\n            uint256[] memory\r\n        )\r\n    {\r\n        Department storage department = departments[_departmentAddress];\r\n        return (\r\n            department.admins,\r\n            department.balance,\r\n            department.departmentName,\r\n            department.requestsLists\r\n        );\r\n    }\r\n\r\n    function requestStatus(address _address, uint256 _amount) external view returns(bool){\r\n        return departments[_address].requests[_amount];\r\n    }\r\n}\r\n",
  "sourcePath": "C:\\Users\\Ayush\\Desktop\\Blockchain\\Project--Inventory-Management-using-Blockchain\\Project_backend\\contracts\\CompanyFunds.sol",
  "compiler": {
    "name": "solc",
    "version": "0.8.21+commit.d9974bed.Emscripten.clang"
  },
  "schemaVersion": "3.4.16",
  "updatedAt": "2025-03-30T18:12:42.930Z",
  "devdoc": {
    "kind": "dev",
    "methods": {},
    "version": 1
  },
  "userdoc": {
    "kind": "user",
    "methods": {},
    "version": 1
  }
}